:10000000C0190020D90A000011430000C50A0000F1
:10001000C50A0000C50A0000C50A00000000000073
:10002000000000000000000000000000510C000073
:10003000C50A000000000000ED0B0000C50A00002A
:10004000ED0D0000ED0D0000ED0D0000ED0D0000C8
:10005000ED0D0000ED0D0000ED0D0000ED0D0000B8
:10006000ED0D0000ED0D0000ED0D0000ED0D0000A8
:10007000ED0D0000ED0D0000ED0D0000ED0D000098
:10008000ED0D0000ED0D0000ED0D0000ED0D000088
:10009000ED0D0000ED0D0000ED0D0000ED0D000078
:1000A000ED0D0000ED0D0000ED0D0000ED0D000068
:1000B000ED0D0000ED0D0000ED0D0000ED0D000058
:1000C000ED0D0000ED0D0000ED0D0000ED0D000048
:1000D000ED0D0000ED0D0000ED0D0000ED0D000038
:1000E000ED0D0000ED0D0000ED0D0000ED0D000028
:1000F000ED0D0000ED0D0000ED0D0000ED0D000018
:1001000008B5054C204604F015F800214FF40040D6
:1001100004F086FFF6E700BFB8560000014B1B68ED
:10012000184700BF00000020014B1860704700BF57
:100130000000002030B585B004460D461022002195
:10014000684604F0E5FF02238DF802302A46044B8E
:1001500001932146684603F0ADFC05B030BD00BFF9
:100160001D01000080B505460E461746984603F06F
:100170002FF8034605F048F8DFF81890044649F8D0
:100180000030424630463946A84754F8090000F08E
:1001900017FD00BF080000002DE9F047058B04465D
:1001A0002807904611D4022905F0070540F0CC80BD
:1001B000204603F0CCFF78B10138218B042811D8F8
:1001C000DFE800F0C2106D85950001290CBF45F0F5
:1001D000100545F02005258388F31188BFF36F8F44
:1001E000BDE8F08701F0070AAA4500F0A5800027C6
:1001F000B9463E46A368002B00F0BC8041F00801E0
:10020000218388F31188BFF36F8FA168002900F064
:10021000BA800D68002900F0B680D1F8048033461A
:1002200052462046C047002D76D02B6829461D46F1
:10023000F0E701F007035A1F012A1BD8002221F022
:100240000701062B276889B2C4E9002209D13B4681
:1002500003E0628B013262831B68002BF9D141F00D
:1002600002012183204603F072FF00287AD041F07A
:10027000200176E0042B0AD121F0070189B2218305
:10028000204603F064FF10B141F020012183218B4F
:1002900001F0070AAA454FD00027B946AAE723690B
:1002A00021F0070141F00601062DD3F800902183CB
:1002B0002DD1B9F1000F3FD041F00801218388F31F
:1002C0001188BFF36F8F3A492046C84729E021F0D3
:1002D0000701236941F0040189B2042DD3F8049089
:1002E0002183E6D000273E464FF0040A82E721F042
:1002F0000701236941F0050189B2052DD3F8089063
:100300002183D6D000273E464FF0050A72E700272A
:100310003E464FF0060A6DE72B4687E7B9F1000F1E
:10032000D1D1EFF31188202383F31288BFF36F8FAD
:10033000238B23F008032383258BEA062ED525F093
:100340001003238305F007056669218B002EBFF695
:1003500070AF00232768C4E9003321F0070141F0A2
:1003600001012183218B01F0070AAA454FF0000902
:100370007FF440AF002F9CD041F00801218388F327
:100380001188BFF36F8F002FC8D03D6839463346C0
:100390005246204603F007FF2F46F4E7AB067FF5F1
:1003A0001BAF25F02003238305F0070500E700BFFE
:1003B000D3410000014B0360002070471855000036
:1003C00008B5044803F0B6FEBDE80840024803F053
:1003D000B1BE00BFC8560000FD560000014803F042
:1003E000C1B900BF1855000038B5044618B90F4B05
:1003F0000F485B6898476168B1F5683F10D0B1F568
:10040000680F0DD00B4DA9420AD011F46861206825
:1004100007D00146084804F041FD002323606560D1
:1004200038BD142204F074FEF9E700BFD8000020A4
:100430002B5700002C5F5CA9E008002008B520B312
:100440004368B3F5683F10D101220368BFF35B8FA7
:1004500053E8001F002903D143E800200028F7D10A
:10046000BFF35B8F0DD1002008BD094A93420AD02B
:1004700000684FF0FF324FF0FF3302F079FA0028A6
:10048000F1D00448F0E70448EEE76FF4E040EBE712
:100490002C5F5CA9E98FFFFFEA8FFFFF08B5D8B199
:1004A0004368B3F5683F10D100220368BFF35B8F48
:1004B00053E8001F012903D143E800200028F7D1A9
:1004C000BFF35B8F0BD1002008BD074A934208D0D1
:1004D000006802F0C5FAF6E76FF4E040F4E703487D
:1004E000F2E70348F0E700BF2C5F5CA9E98FFFFF4C
:1004F000EA8FFFFF10B5044618B91D4B1D485B6815
:1005000098476368B3F5683F2FD0B3F5680F2CD0D8
:10051000194A934219D1236803BB18484FF0FF32A0
:100520004FF0FF33214602F0F5F908B923681BB9F3
:100530000F4B13485B68984720681422002104F091
:10054000E7FD4FF46863636008E0B3F5683F0DD8DA
:100550003A2B03D040F6BA629342DED1206804F011
:10056000E8FC636843F03A03636010BD054AF3E7B3
:10057000D80000202B5700002C5F5CA9E008002069
:10058000515700003A00003A08B506490648402392
:10059000142204F075FCBDE808400449044803F047
:1005A00053B900BFE0030020E00800202055000000
:1005B0003455000008B50348034A0021121A03F01D
:1005C0009FFE08BD90010020E80B00200748084A64
:1005D000084908B5121A03F095FE0748074A08496A
:1005E000BDE80840121A03F08DBE00BF00000020D5
:1005F00090010020205C000000000020000000208E
:10060000205C000038B505460C4699B1D1E90123BC
:100610000F48096803F08EFDD4E90423E1680D4812
:1006200003F088FDE1690C4803F084FDA1690B48E3
:1006300003F080FD012D05D1EFF305810848103945
:1006400003F078FD21462846BDE8384002F01EB888
:100650007E570000AE570000DE570000EE57000046
:100660001D58000030BFFFF7FDBF00BF2DE9F0416E
:100670000B4EDFF8308006EB0807CC1B05463246F0
:100680000949204604F036FDA01942460021083CE5
:1006900004F03EFDC5F8A44007F10800BDE8F08174
:1006A000000000000400000004550000054B5A69DA
:1006B0009B689A421FBF044A536843F080535360BB
:1006C000704700BFD809002000ED00E02DE9F84395
:1006D000324D804632488946174603F02BFDAB6AFF
:1006E000DE0622D52F4803F025FD1124AB6A1D0735
:1006F00003D52D4803F01EFD1224284DAB6A980740
:1007000015D52A4803F016FD6E6BAB6A190642D563
:100710002748314603F00EFDB9F1000F03D0AB6A54
:1007200023F08003AB62132403E01024DEE76FF0B4
:1007300015061A4DAB6ADA0703D51E4803F0FAFC1A
:100740001424AB6A9B0603D51B4803F0F3FC152465
:10075000124B9A6AD50602D49A6A90070AD55B684A
:10076000190507D54146304600F0F6FA10B180F37E
:1007700009880224094B9A6A920642BF5A6A22F4F7
:1007800000525A629A6A42F0FF029A6200233B705A
:100790002046BDE8F8836FF01506C4E700ED00E0E1
:1007A00031580000485800007C5800009058000064
:1007B000A9580000C0580000E058000010B51D4CBA
:1007C0001D4803F0B7FCA36A990130D51B4803F01C
:1007D000B1FC1E20A36ADA0103D5194803F0AAFC74
:1007E0001F20144CA36A1B0303D5164803F0A2FC78
:1007F0002120A36A590303D5134803F09BFC222050
:100800000C4CA36A9A0303D5104803F093FC2320F1
:10081000A36ADB0303D50E4803F08CFC2420054AB1
:10082000936A6FEA03436FEA1343936210BD1D207E
:10083000D0E700BF00ED00E010590000295900008A
:100840003D59000058590000775900009D5900009B
:10085000B859000070B5244C064624480D4603F0F4
:1008600069FCA36AD90435D5214803F063FC17203D
:10087000A36A1A0503D51F4803F05CFC18201A4C24
:10088000A36A9B050FD51C4803F054FCA16BA36A17
:10089000180407D5194803F04DFC1EB1A36A23F4D0
:1008A0000043A3621920104CA36A590503D51448CC
:1008B00003F040FC1A20A36ADA050DD5114803F0B5
:1008C00039FC1B20084A936A43F47F439362002358
:1008D0002B7070BD1620CBE7A36A9B04F2D50A48A3
:1008E00003F028FC1C20EDE700ED00E0E4590000D7
:1008F000FB5900007C5800000D5A0000275A0000E8
:100900003D5A0000595A0000E05800002DE9F0411E
:100910005B4B5F688AB00446C7F30806002585F381
:100920001188BFF36F8F02F07F43B3F17F4F06D181
:1009300002F00C03082B13D1524803F0FBFB0025F7
:100940002C464FF00008F31E8DF80780092B00F2AB
:100950008680DFE803F00A7A7E7684848484848249
:1009600010074CBF0C460125EBE74748444E03F007
:10097000E1FB8DF80780F36A9A0704D5434803F03A
:10098000D9FB002330E0F36A002B01DA4048F6E798
:10099000F36A5B00F5D53F4803F0CCFB7369A269AD
:1009A00043F480737361BFF34F8FBFF36F8F73692D
:1009B00032F8022C23F480737361BFF34F8FBFF3BF
:1009C0006F8F4DF602739A4209D0B36ADBB253B30C
:1009D0000DF1070201212046FFF778FE33E0216880
:1009E0002D4803F0A7FB23689DF80720C2B902AE8B
:1009F00004F1200720686168324603C20834BC4213
:100A00001646F7D1099AB5B3C2F3080121B96FEAC6
:100A100052226FEA4222099202A91846FFF7F2FD1C
:100A20000AB0BDE8F081B36A13F47F4F05D00DF131
:100A300007010120FFF70EFF05E0B36AB3F5803F21
:100A40009FD3FFF7BBFE0346CEE70DF1070200215F
:100A5000C1E70DF107010020ECE710488FE7104BCC
:100A60001049114817F4F87FA6F1100218BF194673
:100A700003F060FB85E722F4FF7222F00102CAE76F
:100A800000ED00E0A05A0000CC5A0000E45A00003B
:100A9000065B0000155B0000355B0000525B000048
:100AA000875A0000725A0000775B0000044B5A69B5
:100AB00042F010025A615A6922F008025A617047E6
:100AC00000ED00E0EFF30880EFF3098101B5724615
:100AD000FFF71CFF01BD00BF002080F31488BFF3A7
:100AE0006F8F114880F3088800201049087001F0CA
:100AF00001FA00200E490860BFF34F8F00F02EF876
:100B0000202080F311880B484FF40461401880F3D3
:100B10000988EFF314800221084380F31488BFF39F
:100B20006F8F00F0E9F80000C0190020E30B0020EF
:100B300094ED00E0000C00200749D1F8902000233C
:100B4000C2F307221846934200DB7047C1F8983081
:100B5000C1F8A0000133F6E700ED00E008B572B679
:100B6000002383F31388FFF7E7FF144B4FF0FF32A6
:100B7000C3F88020C3F88420C3F88820C3F88C20F1
:100B8000C3F89020C3F89420C3F89820C3F89C20A1
:100B9000C3F88021C3F88421C3F88821C3F88C21CD
:100BA000C3F89021C3F89421C3F89821C3F89C217D
:100BB00062B6BFF34F8FBFF36F8F08BD00E100E057
:100BC000084B9B6883420BD1EFF3058343B1064B7F
:100BD0005A6842F080525A605A6A22F400425A62BD
:100BE00002F0FCBAD809002000ED00E015498A683F
:100BF0004FF030001044EFF3098C80E8F01F202004
:100C000080F31288BFF36F8F0F4F4FF000664A6971
:100C10008A603E60D2F8A4000C4C2060D2F8A80094
:100C20000023C2F8A83080F3118804B5104600F004
:100C3000FBF8BDE8044002F1300090E8F01F8CF3AF
:100C400009887047D809002004ED00E0FC08002066
:100C50001EF0040F0CBFEFF30880EFF309808169E9
:100C600011F8021C0229FFD001B5724603F04CFBBB
:100C700001BD00BF40B2002807DB044A410901233F
:100C800000F01F00834042F82130704700E100E08F
:100C9000054B420900F01F0053F82220012303FAFC
:100CA00000F01040704700BF00E100E040B20028B3
:100CB000A8BF00F1604001F10101B8BF064B4FEA47
:100CC0004111ACBF00F5614000F00F00C9B2B4BFE4
:100CD000195480F80013704714ED00E0044B054AE6
:100CE00023F07F039360BFF34F8FBFF36F8F704785
:100CF0000000000000ED00E008B5FFF7EFFF074A35
:100D0000D2F8883023F47003C2F88830FFF752FC21
:100D1000FFF75CFC00F05EF801F084FD00ED00E000
:100D200042F8203C009B42F81C3C0A49019B42F8D7
:100D3000183C029B42F8143C21F001014FF08073F3
:100D400042F8043C42F8081C0023203A0265C0F82F
:100D5000A8307047650100000A4A0346906878B1E0
:100D600013F1160FD0F8940005D0A0F140029A427A
:100D700005D8834203D2814228BF0020704700205B
:100D8000704700BFD809002008B515460C4A0D4B26
:100D90009060D0F8A4201A600E4600F045F82C466A
:100DA00086F309880020044B984720460021002242
:100DB0000023024C204700002D4300006501000085
:100DC000D8090020FC080020014B10221A6170474E
:100DD00000ED00E0044800232021C2180133302B2D
:100DE00082F80013F9D1704700E100E008B5EFF395
:100DF0000583064A103B02EBC30152F833004968F1
:100E00008847BDE80840FFF751BC00BFF45200001E
:100E1000024B034A0348012100F078B80000042087
:100E20000000002044550000D0F89420054B403AC3
:100E30001A60054A4021C3E901121846012100F059
:100E40006FB800BF0009002000000B15084AC2F867
:100E500098000B6823F01F03034343F01003C2F80C
:100E60009C308B6843F00103C2F8A030704700BF8C
:100E700000ED00E02DE9F043DFF8608085B00E461C
:100E80001F4604464FF00009B14523DA6068D8B127
:100E90003FB1411E08421BD11F2819D923681942AE
:100EA00016D12368019303F064FAA3680343039304
:100EB000D8F89050C5F30725D0B2013DA84207D815
:100EC00001A9FFF7C3FF421C09F101090C34DBE75C
:100ED0006FF01502104605B0BDE8F08300ED00E0AC
:100EE000044B0522C3F89420BFF34F8FBFF36F8FDD
:100EF000704700BF00ED00E0BFF35F8F024B0022A0
:100F0000C3F89420704700BF00ED00E010B5034C1B
:100F100001232278FFF7AEFF207010BDE00B002008
:100F200008B50B4A00231278FFF7A4FF10F1160F43
:100F300007D0084A0021D2F89030C3F30723984223
:100F400000DB08BDC2F89800C2F8A0100130F2E73B
:100F5000E00B002000ED00E02DE9F043534B544C32
:100F6000D3F890302568C3F307239D4285B000F283
:100F70009A80FFF7C1FF00200C2685421AD14D4C04
:100F80004D4F25706846FFF715FADFF82081DFF82E
:100F90002C9106460025AE4213D123784349002008
:100FA000D1F89020C2F30722934276DBFFF798FF37
:100FB000002042E0616806FB0011FFF747FF0130A7
:100FC000DBE7009800EB05114FEA051CCB683B40BE
:100FD000B3F5000F48D00AD8B3F5001F30D0B3F5F1
:100FE000800F36D0B3F5801F10D00135D3E7B3F1B1
:100FF000807F42D0B3F1007FF7D150F80C30886881
:101000004A6803F0B6F940F4802009E050F80C304B
:1010100088684A6803F0ADF940F0885040F4302009
:10102000CDE901230390D8F890302078C3F307234B
:10103000013B98422AD96FF0150005B0BDE8F08356
:1010400050F80C3088684A6803F093F940EA0900C8
:10105000E6E750F80C3088684A6803F08AF940F0F7
:10106000C06040F40030DBE750F80C3088684A6814
:1010700003F07FF940F08270D2E750F80C308868B6
:101080004A6803F076F940F08870C9E701A9FFF7D4
:10109000DDFE237801332370A7E7C1F89830C1F84B
:1010A000A00001337CE74FF0FF30C6E700ED00E021
:1010B00050550000E00B00200000F0FF0000081178
:1010C00008B5024B1B689847002008BD0C0900209A
:1010D000034B044A1860937843F0020393707047FF
:1010E0000C0900202400002008B50649064821F01C
:1010F0000701C1F1005202F5802202F0C1FF002079
:1011000008BD00BF071A0020100900200E4A012365
:10111000C2F840354FF080424FF08051C2F8783528
:10112000D1F83001082808D1D1F83411052904D8A4
:101130000648415C09B1C2F838364FF080430122BD
:10114000C3F880250020704700E001409A5B000052
:1011500048B1054B054A1B68B3FBF2F35843044BF7
:1011600043F0010318477047C400002040420F00BD
:101170001055000008B50448044A3F23C0E9002385
:1011800000F096FF002008BD1C090020FFFF0F00A3
:10119000084B70B5C31A0D4607499B1004465943C6
:1011A0000648402203F003F92B4601462046BDE8DD
:1011B0007040184738090020B76DDBB67452000044
:1011C00073B50C4C0C4A4023041B00930D460B4690
:1011D0000A49A41061430646094803F014F9011EA8
:1011E00005DA30462B4602B0BDE87040184702B021
:1011F00070BD00BF3809002071440000B76DDBB638
:10120000745200000022F8B5012105461046FFF790
:101210004DFD104800F074FF0446B8B900F090FF8F
:101220002F690D49384602F0E1FF031E09DB012654
:101230003E642D69084905F11C0002F0D7FF031E2A
:1012400002DA1C462046F8BDEE64FBE76FF00404AA
:10125000F8E700BF89130000705500001FB5002299
:101260000123CDE90223094ACDF800D06B46CDF821
:1012700004D003F0F6F8002805DB4FF48042002389
:10128000684601F071FC05B05DF804FB8344000082
:1012900010B5EFF31184202383F31288BFF36F8F0F
:1012A000074A136823F00201DB07116002D4012012
:1012B00003F0A2FA84F31188BFF36F8F10BD00BF53
:1012C0008809002030B4104B0C2202FB0033014689
:1012D0000020D3E90E529863EFF31180202484F3A9
:1012E0001288BFF36F8F1C6C04F0C00444F002043A
:1012F0001C6480F31188BFF36F8F1DB12B46034828
:1013000030BC184730BC70473809002074520000C8
:1013100010B4EFF31182202383F31288BFF36F8F91
:101320001748016841F002040460C80707D482F33B
:101330001188BFF36F8F012010BC03F055BA4FF036
:101340008041D1F80C04D1F80C14C907EFD5EFF3A4
:10135000118083F31288BFF36F8F0A490B6C03F07F
:10136000C00343F002030B6480F31188BFF36F8F57
:1013700082F31188BFF36F8F002010BCFFF7A2BF6C
:10138000880900203809002010B1012804D07047D6
:10139000034B1B6C5B0701D1FFF794BF704700BF85
:1013A000380900202DE9F0413849BFF35B8F07462B
:1013B000012251E8003F41E800200028F9D1BFF3A5
:1013C0005B8F33B9324933484B60CB608A6002F09F
:1013D00020FF7B1E012B2BD8012F07D14FF080431C
:1013E000D3F81C3403F00303012B21D003F0A8FD34
:1013F0000546F8B9284B1B78E3B14FF08043022231
:10140000C3F808230646DFF894804FF08044D4F8F0
:101410001824D4F81834D20315D503F00303012B94
:1014200001D0012F0FD155B386F31188BFF36F8F11
:10143000BDE8F081EFF31186202383F31288BFF318
:101440006F8F0125DFE7ADB1304602F083FFD4F89E
:101450001835002BDBD1D4F80421002AD7D0C4F8EA
:101460000431D4F804310123C4F81835C8F88031A8
:10147000A360CCE70021212003F0D2FDE7E74FF085
:1014800080430222C3F80423D2E700BF34090020BE
:101490002409002054090020E30B002000E100E0B3
:1014A00008B5074803F0BCFC38B10648FFF710FE4A
:1014B0000448FEF739FE002008BD6FF01200FBE77C
:1014C000D4520000C91400000A2838B5074D04465C
:1014D00004D1AB680D215B6828469847AB68034888
:1014E0005B68E1B29847204638BD00BFD452000087
:1014F000F0B545681646A8682A7C01F01F0487B03D
:1015000044EA4214002869D0B6F5001F04D12146F0
:1015100003F068FC002052E001AA0020B6F5800F1D
:101520000190506037D1B3F1007F14BF052304232D
:101530008DF804300023CDE904230393EB6823FAEC
:1015400001F111F001010DF103073AD1B6F1A07FCD
:1015500037D104F01F03620903F5E07326D0012A96
:101560003FD1214A52F82330DB072AD4A8683A46F3
:10157000214603F0ADFB16301BD00297A86803AAE2
:10158000214603F071FA002819DBA86801222146E0
:1015900003F0D5FBBEE7B3F1C06F05D0B3F1007F18
:1015A00014BF01230223C3E70323C1E74FF0A04286
:1015B000D8E7A868394600F075FF0028DDDA07B0E3
:1015C000F0BDA8683A46214603F082FB0028D5D139
:1015D0009DF80310A86800F05FFFCFE76FF085006B
:1015E000EDE751F82330FFDE00030050420970B5EB
:1015F000034602D0012A17D070BD0D4E32695168E2
:101600000029F9D003F01F0301250C689D40002933
:10161000F2D08A682A4002D04B68304698472CB1F5
:10162000236821461C46F2E7024EE7E72346F8E727
:10163000B45200009452000038B54568A86890B1D3
:1016400003F075FB014670B9A86803F054FB04462B
:1016500058B902460649A86803F037FB224605211F
:101660000620FFF723FB002038BD6FF00400FBE7E6
:10167000ED1500002DE9F043476840F20636D0062C
:101680003B7C87B002EA060654BFC2F3401C4FF011
:10169000030C01F01F05B6F5837F144645EA431598
:1016A0008DF803C045D00DD8062E16D005D8A6B1AA
:1016B000022E40D06FF0150038E0B6F5807FF9D1EA
:1016C00001260AE040F20222964236D0B6F5407F6B
:1016D00035D0B6F5007FEDD102260123220303FAAF
:1016E00001F12ED57B68C3F80815B86890BB05F0EA
:1016F0001F036D092BD0012D75D13D4A02EB8302EA
:1017000084F48033D2F80017C3F30043C4F3404499
:1017100044EA430421F4E16144EA8C0421F0070126
:1017200044EA06230B43C2F80037002007B0BDE8A7
:10173000F0830726D1E70426CFE70526CDE7032669
:10174000CBE7630344BF7B68C3F80C15CDE74FF0CC
:10175000A042D3E70DF10202294603F0B9FA14F4CE
:10176000403F80460CD1B868294603F0E6FAB8F14C
:10177000000FDAD19DF80210B86800F08DFED4E7B2
:101780004FF0000901ABCDE90199CDE90439CDF85D
:101790000C90B86803AA294603F066F94845C4DBF3
:1017A00014F4003314D084F480349DF803308DF8A1
:1017B0000E30C4F300448DF80C608DF80D40B8680D
:1017C0004B4603AA294603F007FA0028CFDAACE714
:1017D000CDE904330DF103030393B86803AA294646
:1017E00003F042F9F1E703F5E07350F82330FFDE30
:1017F00000030050036803F01F025B09026004D07D
:10180000012B034818BF002070474FF0A0407047DD
:10181000000300502DE9F04FDFF8B4B185B0154654
:10182000824600EB810840F2FF19D04503D1002029
:1018300005B0BDE8F08FDAF800305804C3F3C321D7
:10184000C3F3080400F1BD80624A4C45515C4FEA85
:10185000136312D0222B1ED94E2B40F0B580C5F851
:10186000144503A80394FFF7C5FF039B012606FA5E
:1018700003F3C0F80835374654E0222B09D94E2B24
:1018800040F0A2804FF0FF33C5F814350AF1040A86
:10189000CBE74FF0FF34222B00F29680DFE803F015
:1018A00012171D20232920949494943963949494BE
:1018B000949494949494667174779494947A8285B1
:1018C000888B8E00C5F80C45631CCAD1DEE7C5F8CD
:1018D0001445621CDAD00026CDE7C5F80845F3E7C9
:1018E000C5F81045F5E7631CC5F80845CED00026BD
:1018F00004E0671CC5F80C45C8D0012603A8039472
:10190000FFF778FF039B012707FA03F3C0F80C35B4
:1019100008E0C5F808450029DBD1661CB6D00026D2
:1019200037460621DAF80030019303F4004000281E
:1019300003A81CBF002701260394FFF75BFF039C4D
:10194000019B00EB8400C3F3412CD0F800470B024D
:1019500043EA8C033B4304EA0B04234343EA460374
:10196000C0F8003792E7C5F80C45D4E7C5F86045E4
:10197000601CDAF8003089D0C3F30043002BBCD0E0
:101980006FE7C5F86445F3E7C5F86845F0E7C5F8C3
:101990006C45EDE7C5F82445621C3FF477AF00279E
:1019A0000126BFE7C5F828458EE7C5F83045F3E7BF
:1019B000C5F83445F0E7C5F83845EDE7C5F83C45CE
:1019C00082E76FF0150033E76FF0850030E700BF66
:1019D000F0F8FCFFCB5B00002DE9F04104464768BE
:1019E0000D4603F0ADFA4FF0200888B9264B1B785E
:1019F00073B16426606802F0CFFDF0B9012002F0F7
:101A0000A0FE013EF6D10021212003F009FBF0E702
:101A1000EFF31186314688F31288BFF36F8F606849
:101A200002F0BAFDA8B986F31188BFF36F8FEFE714
:101A300086F31188BFF36F8FE5E7EFF31186314628
:101A400088F31288BFF36F8F606802F0A5FD00284D
:101A5000EED0BB691D706368BA691B680020C3F8CB
:101A600044250122C3F84825C3F82001D3F82041BA
:101A7000C3F85801D3F858019A6081F31188BFF375
:101A80006F8FBDE8F08100BFE30B002070B501232C
:101A900083400E4ABFF35B8FDC4352E8001F01EA2C
:101AA000040542E80056002EF7D1BFF35B8F4FF4D8
:101AB000803282400648C0F80823BFF35F8FBFF32F
:101AC0006F8F0B4214BF0120002070BDB4090020AD
:101AD0000010014070B40E49D1E90034D01AC31887
:101AE00044F1000422F07F46C1E90034A6F500135A
:101AF000B3F5400F09D2074B1B681A0A1B069C1945
:101B0000054B42F10005C3E9004570BC01F06ABD18
:101B1000A0010020B8090020A801002011B3BFF3E4
:101B20005B8F0123104A834052E800CF4CEA030C3C
:101B300042E800C10029F7D1BFF35B8F0B4A4FF495
:101B400080338340C2F80433094BBFF35B8F1B68BB
:101B5000BFF35B8FC340DB0742BF064B4FF400323D
:101B6000C3F80021704700BFB409002000100140F5
:101B7000B009002000E100E00D4B1868010A0006E2
:101B8000BFF35F8F0B4BD3F80435181841F10001F8
:101B9000B3F5801F0AD2084BD3E90023904271EBC2
:101BA000030303D210F1807041F10001704700BFC0
:101BB000B809002000100140A80100202DE9F04FD5
:101BC00085B016461F469DF840A00446FFF75EFF0D
:101BD0000190FFF7D1FFB04271EB070354D23E4BA7
:101BE000301A67EB0101984271F100014FD23B4B73
:101BF00003EB0413D3E902239F4208BF96425ED051
:101C000037494FF4803804F1500508FA04F8AD0064
:101C1000C1F848832046ADB202F079FD26F07F4B33
:101C200005F1804504F5A87305F58835DC464FF0CD
:101C300003090293029A2CF07F4341F82230C1F845
:101C40004483D1F80435274A6FF00200C01A60447B
:101C500020F07F40904232D9286868B1D1F804352D
:101C60000393A3EB0B0020F07F40B0F5000F26D9C3
:101C7000204602F04CFD039BBAF1000F07D109EB9F
:101C8000030C09F10109D5E7BAF1000F09D06FF093
:101C9000150520460199FFF741FF284605B0BDE82C
:101CA000F08F0123104ABFF35B8FA34052E8000F6F
:101CB000184342E800010029F8D1BFF35B8F0749C0
:101CC0000E98230101EB0412C8500F9B5360C2E928
:101CD00002670025DDE700BF0100800090010020C1
:101CE00000100140FDFF7F00B00900207FB51C4CB3
:101CF0001C4BC4F80833C4F848331B4B00254FF085
:101D0000FF304FF0FF31C4F80855C3E902014FF42A
:101D10008033C4F80433154B02264FF400320121FE
:101D2000C4F804631120C3F880212A46FEF7BEFFE1
:101D30001120FEF79FFF0E4A0123A360236013606A
:101D40000C4B0D4A0093CDE9015500232846FFF7BF
:101D500035FF3046FFF726FB284604B070BD00BFB4
:101D60000010014003000F009001002000E100E09E
:101D7000B4090020D51A0000FFFF7F002DE9F743CA
:101D80002F4CD4F8043399070BD5D4F8043143B160
:101D90002C4A0023C4F80431D4F804311368013309
:101DA0001360D4F80433DA0329D5BFF35B8F264BD5
:101DB00053E8002F22F0010143E800100028F7D17A
:101DC000BFF35B8FD30702D4D4F84031BBB10025F9
:101DD000C4F84051D4F84031FFF7CEFEEFF3118242
:101DE000202383F31288BFF36F8F184BD3E9026768
:101DF000B042B94106D282F31188BFF36F8F03B0AE
:101E0000BDE8F0834FF0FF384FF0FF39C3E9028996
:101E1000D3E900101D604FF48033C4F84833C4F890
:101E20004051D4F8403182F31188BFF36F8F0029FD
:101E3000E5D0009032463B4628468847DFE700BFA2
:101E400000100140B8090020B009002090010020D6
:101E500030B5431C124C85B005D08442A8BF04465F
:101E6000012CB8BF0124FFF787FE0E4B0C4DD3E9C0
:101E70000013401AB0F5000F10D22218AA4228BF52
:101E80002A4652184FF0000007490091CDE90100A1
:101E900043F10003FFF792FE05B030BD2A46F0E79C
:101EA000FFFF7F00A0010020D51A000008B5FFF752
:101EB00063FE024B1B68C01A08BD00BFA0010020D2
:101EC0004FF08053D3F83021082A06D1D3F83431AB
:101ED000052B02D8024AD05C70470020704700BF33
:101EE000E75B0000024AD2F80034002BFBD07047B9
:101EF00000E0014010B54FF08053D3F83021082A9C
:101F00004ED14FF080420021C2F80C11C2F81011DE
:101F1000C2F8381502F54042D3F80414C2F820156F
:101F2000D3F80814C2F82415D3F80C14C2F82815F5
:101F3000D3F81014C2F82C15D3F81414C2F83015C5
:101F4000D3F81814C2F83415D3F81C14C2F840158D
:101F5000D3F82014C2F84415D3F82414C2F8481555
:101F6000D3F82814C2F84C15D3F82C14C2F8501525
:101F7000D3F83014C2F85415D3F83414C2F86015ED
:101F8000D3F83814C2F86415D3F83C14C2F86815B5
:101F9000D3F84014C2F86C15D3F84434C2F8703545
:101FA000FFF78EFF18B13A4B3A4AC3F88C26FFF779
:101FB00087FF18B1384BFB22C3F81825FFF780FFC5
:101FC00070B14FF080414FF08053D1F8E42ED3F838
:101FD000583222F00F0203F00F031343C1F8E43E1E
:101FE000FFF76EFF20B12D4B4FF40072C3F840266F
:101FF0004FF08053D3F83031082B1AD14FF0804383
:10200000D3F80024D20744BF6FF00102C3F80024C4
:102010004FF08053D3F83431052B02D8204AD35CDB
:102020003BB14FF01023D3F808224FF08043C3F8A0
:1020300058254FF01023D3F80022002A03DBD3F8F1
:102040000432002B22DA174901234FF01020C1F887
:1020500004351224FFF746FFC0F80042FFF742FFA5
:10206000C0F80442FFF73EFF0023C1F80435FFF734
:1020700039FFBFF34F8F0C490C4BCA6802F4E06282
:102080001343CB60BFF34F8F00BFFDE710BD00BF10
:10209000005000404881030000F0004000900240E2
:1020A000E15B000000E0014000ED00E00400FA0503
:1020B000014B1860704700BFBC09002010B5054BEC
:1020C0001868144602F03FFB0028A4BF20700020CF
:1020D00010BD00BFBC090020024A01238340C2F8A2
:1020E0000435704700F00140014B00201B68184781
:1020F000C0090020014B1B68184700BFC009002021
:1021000010B50C4C237993B9012323710A4B20603D
:10211000002818BF184600F05BF850B9236807483C
:10212000002BBDE8104008BF184600F0A1B86FF0C2
:10213000770010BDC0090020E9200000F520000054
:1021400008B5064B1B683BB10020FEF7A1FD18B98E
:10215000BDE80840FEF78EBD08BD00BFC0090020E5
:102160004FF08053D3F83021082A06D1D3F8343108
:10217000052B02D8024AD05C70470020704700BF90
:10218000ED5B000038B54FF080440123C4F80833FC
:1021900063600023C4F80031D4F8003142F21075B6
:1021A000D4F80C24D4F80C34D20307D5DB0705D5BA
:1021B000012002F0C6FA013DF2D138BDFFF7D0FF91
:1021C0000028FAD0014B00225A71F6E7C809002016
:1021D00010B508490C794CB9012308600B71FFF761
:1021E000BFFF08B9002010BD4C71FBE76FF077000E
:1021F000F9E700BFC80900204FF080430022C3F870
:102200000021D3F80021094901221A60096811B19F
:10221000C3F804237047D3F80021002AFBD0002222
:10222000C3F80021D3F80031704700BFC80900206F
:1022300010B54FF08043D3F80423D20715D5D3F857
:10224000002192B10022C3F800210121D3F800211E
:10225000C3F80813FFF784FF044B10B15A7922B971
:102260005971BDE810401B68184710BDC80900200F
:10227000074A137943B90121106011714FF0804270
:102280001846C2F8183570476FF07700704700BFE6
:10229000D009002010B54FF080431D4CD3F818141E
:1022A000D3F8182411F4803F19D002F00302012A58
:1022B00003D00AB102F0B1FA00224FF08043C3F814
:1022C00018250022C3F80421D3F8042101229A60C2
:1022D000226872B9D3F80421002AFBD011E0D3F8A8
:1022E0001424D107E8D5D3F81C249207E2D422683D
:1022F0001AB10222C3F8042310BDD3F80421002A26
:10230000FBD00022C3F80421D3F80431F4E700BF66
:10231000D0090020F8B54FF08043194FD3F804439B
:10232000012504F01A04002604B9F8BDB4FA84F0BB
:10233000C0F11F00830003F580739BB203F180435B
:1023400005FA00F2196824EA02040029ECD01E60A4
:102350001B684FF080430128C3F808230CD1D3F841
:102360001824D3F81824920706D10222C3F81805BE
:10237000C3F804239860D7E73B68C0B29847D3E717
:10238000D0090020036803F01F025B09026004D03B
:10239000012B034818BF002070474FF0A040704742
:1023A00000030050034A430900F01F00D35C1844A7
:1023B000C0B27047F35B0000034611F0010030B576
:1023C000CCB213D1A207C4F3400020D5124AD2F8F0
:1023D000200558604FF08053C2F82005D3F8303103
:1023E000082B15D0003818BF012010E04FF0A04195
:1023F0004FF08055D1F820251A60C1F82025D5F876
:102400003051082D08BFD1F82015002ADAD030BD90
:10241000D2F82035E6E700BF00030050F7B50446C8
:102420000846FFF7BFFF06B204EB46060D46B38A27
:10243000DB072BD5204602F0F4FA2946204602F0AD
:102440005FFA58B1204602F071FA276800B207EB34
:1024500080030022C3F81025C3F810252946204622
:1024600002F08DFA0021B18201A80195FFF78AFFE1
:10247000019B00EB8300074BD0F80027134043F08B
:102480000203C0F80037084603B0F0BD6FF0150036
:10249000FAE700BFF0F8FCFF014802F072B900BF94
:1024A000C800002010B504480C4602F04CF9002882
:1024B000A4BF2070002010BDC80000202DE9F04FFF
:1024C000804689B058F804ABDAF80413C9B28346E1
:1024D000082241F00041504602F07BFA051E2BDA3B
:1024E0000023032106A8CDE90633FFF765FF644BFF
:1024F00001930DF118090023019A009312F8013B92
:1025000060490192DA0803F007038A5C22FA03F3B8
:10251000DA071AD4009B09F10409A3B14FF0004176
:102520000022504602F055FA032106A8FFF744FFA7
:102530000028DCD125F000450124002D40F08A80E0
:1025400009B0BDE8F08F0123D6E7009B4E4A134443
:102550000293D9F800100029DCD0029B91FAA1F176
:102560001C78B1FA81F141EA44142046FFF71AFFC2
:102570000BEB40000594878AC808BB0819F80020B7
:10258000039301F00701012303FA01F122EA01029A
:1025900009F8002005A8FFF7F5FE059A039B02F550
:1025A000E072C7F3820650F822205B073746C2F379
:1025B000014233D5D6B240463A46214602F0C0F930
:1025C00005A80594FFF7DEFE059B03F5E07350F8C0
:1025D0002330C3F301439E4207D10021204602F07D
:1025E00080F93146204602F07CF905A80594FFF7F2
:1025F000C9FE059B012202FA03F3C0F820354FF013
:102600008053D3F83031082B01BFD0F82035D0F8F3
:102610002035D0F82035D0F820359AE7022A0DD1A0
:102620000321204602F05DF906F00503012BDCD101
:102630003A462146404602F083F9D6E70221204679
:10264000039202F04EF9032EF2D0039A032ACCD162
:10265000022EECE795FAA5F3B3FA83F304FA03F23A
:1026600025EA020503F5A2720BEB43035AF8222078
:10267000B3F87C10C2F30142404602F061F95CE716
:10268000035C000014560000035C000038B5EFF353
:102690001185202383F31288BFF36F8F064B9C684C
:1026A00002F0D1FB85F31188BFF36F8F2046BDE8A0
:1026B0003840FEF785BA00BFD809002038B50A4B6C
:1026C00053F82040013053F82050A54200D838BDBF
:1026D000606830B1037FDB0701D402F089FB083466
:1026E000F3E723689847FAE71856000070B52A4BBD
:1026F0002A4C2B4D012286B003201A70FFF7DEFF13
:10270000FDF75EFE0420FFF7D9FF2646AE4204F136
:10271000300410D300F068FC204C224EAC4226D38B
:1027200000F076FCFDF7ECFC1F4A137B23F001035D
:10273000137306B070BD54F80C3C059354F8103C6C
:10274000049354F8143C039354F8183C029354F83F
:102750001C3C019354F8203C009354E90A2354E9AB
:102760000C0100F027FA54F8303C5E65CDE7D4E95F
:102770000A23B3F1FF3F08BFB2F1FF3F05D052EA91
:102780000301206803D100F0FFFC3034C6E7314676
:10279000183000F097FEF8E7E30B002074540000B7
:1027A00074540000195000006002002070B5174EEC
:1027B000174D184986B0B02303FB0066164B0593EE
:1027C00001220F23CDE903320023CDE90133142385
:1027D00003FB005504464FF4C07000FB04110F4B7F
:1027E00000954FF4A072304600F0E4F9737B0C4A78
:1027F000EE6023F0040373734FF4046304FB0333AC
:1028000013442C746B6006B070BD00BFB001002093
:10281000D809002040140020055C00000D4F000086
:10282000000C0020BFB50020FFF748FF284B83F3C2
:102830000888284C284F636943F4007363610025BE
:10284000E02384F82230E57725766576A57684F84E
:102850002050636A43F4E023636284F82350FEF758
:1028600025F9FEF7B1FA4FF0FF33A362E362FEF7FA
:1028700073FBFEF7CDFA1948194C00F011FA01204C
:10288000FFF71CFF0220FFF719FF00F0F5FB154BC7
:1028900015495C61154B05930123CDE903534FF4B2
:1028A00080623B46CDE901550095204600F082F953
:1028B000627B064622F004022046627302F080FB2F
:1028C0002846FFF773FF3A4631462046FEF75CFA8A
:1028D0004014002000ED00E0ED2600001003002071
:1028E00060020020D8090020C01500200A5C00000A
:1028F00038B5064C064D0020AC4200D338BD20460A
:1029000002F0A4FA0028F9DB1C34F5E740010020AE
:102910004001002073B50C46EFF31181202585F3AB
:102920001288BFF36F8FC5685DB125602B68C360E7
:10293000836901338361002081F31188BFF36F8FB6
:1029400011E052EA030603D125606FF00B00F3E7B4
:10295000CDE900230246083000F08CFA18B9034B89
:102960009B681B69236002B070BD00BFD8090020BE
:102970002DE9F341044617461E46EFF31188202344
:1029800083F31288BFF36F8FC368334A7BB18068CB
:102990009168884219D057EA060318D188F3118844
:1029A000BFF36F8F6FF00F0002B0BDE8F081916848
:1029B00091F90E1021610133E3609368A36088F3FD
:1029C0001188BFF36F8F0020EEE72169F2E791F9DC
:1029D0000E1090F90E309942A8BF19466FF07E0292
:1029E0009142B8BF11468B422DDD02F09AFA05469E
:1029F000CDE9007619482246414600F03BFA00280E
:102A0000E1D0EFF31186202383F31288BFF36F8F99
:102A1000A068D0B1236821699C420AD04BB193F9D8
:102A20000E309942A8BF19466FF07E039942B8BF95
:102A3000194602F076FA40B10848314600F0AEFA85
:102A40006FF00A00B0E70025D2E7002DF4D186F33D
:102A50001188BFF36F8FF3E7D8090020E40B002043
:102A6000F8B583680546002B40D0234A926893420C
:102A70003FD1C368012B03D9013BC3600020F8BDDF
:102A8000EFF31187202383F31288BFF36F8F01695F
:102A9000806802F046FA2C68A54207D10023C5E9F8
:102AA000023387F31188BFF36F8FE7E7002CF5D06F
:102AB000D4E9003213605A60637B002623F00203DE
:102AC0006373C4E90066A66004F1180002F0E6FA38
:102AD000AC6094F90E302B612046C4F8AC6002F073
:102AE0006FFA0648394600F059FAC7E76FF015004B
:102AF000C5E74FF0FF30C2E7D8090020E40B002003
:102B000070B5EFF31186202383F31288BFF36F8F24
:102B10000468A0421BD0D4B1D4E9003213605A60DB
:102B2000637B002523F002036373C4E90055A560AD
:102B300004F1180002F0B2FA2046C4F8AC5002F0DA
:102B40003FFA31460748BDE8704000F027BAD0E9A7
:102B500002329A4218BF0133836086F31188BFF3B3
:102B60006F8F70BDE40B002013B5EFF311812024AB
:102B700084F31288BFF36F8F846844B1013C846092
:102B800081F31188BFF36F8F002002B010BD52EAAD
:102B9000030406D181F31188BFF36F8F6FF00F002C
:102BA000F3E7CDE900230246014800F063F9ECE7C2
:102BB000E40B00202DE9F04F073285B022F0070228
:102BC00004461E467F3200F15803C0E9163322F056
:102BD0003F02129B237300200D46119BDDF838A0A5
:102BE000139FA06004213F2AC4E906006173A37308
:102BF000E07305F14009A2F1400B05D880F311887C
:102C0000BFF36F8F084602DF05EB020841462046FE
:102C1000FDF72CFD0730109B20F00700C4E9259B31
:102C2000C4F89C0002930F9BA8EB000BCDE900A316
:102C30005A46334629462046FEF772F80F9BA36694
:102C40004FF00008109BC4F85480C4E9186AE3668A
:102C5000EFF31182202181F31288BFF36F8F0F4DA4
:102C6000296A21672C6282F31188BFF36F8F8FB1BD
:102C70001F22394604F1740002F052FA84F893805E
:102C8000AB680BB1D3F8A030C4F8A030584605B0FB
:102C9000BDE8F08F84F87470F2E700BFD809002017
:102CA00040F2011383810023C0E92533C0F8A0302E
:102CB000014B9860704700BFD80900200A4A93680A
:102CC0006FF00A01C3F8AC100849C3F8A8004B68BC
:102CD00043F080534B60002383F31188BFF36F8F61
:102CE0009368D3F8AC007047D809002000ED00E0ED
:102CF00070B590F90D20437B002A36DBD90634D11C
:102D00001B4C63F07F032246437352F8183FE1697E
:102D1000934207D1C0E900210860E06111E09942C7
:102D2000F8D01B68002BF5D090F90E5093F90E6087
:102D3000B542F4D0AE42F2DD5968C0E90031086016
:102D40005860A569954200D005B9E568A3685A7B2B
:102D5000D20604D1DA897F2A01D9AA6932B1AB42FD
:102D600002D0284600F00AFB656170BD6361FCE794
:102D7000D809002038B590F90D20437B002A014680
:102D800004DA03F07F03437302F0E0F80D4D2A46A6
:102D9000AB6852F8184F944200D004B9EC688B42EB
:102DA00007D05A7BD20604D1DA897F2A01D9A269D9
:102DB0002AB1A34202D0204600F0E0FA23466B611C
:102DC00038BD00BFD8090020B3F1FF3F08BFB2F102
:102DD000FF3F03D00249183000F074BB704700BFBA
:102DE0001950000070B590F90D20437B002A014670
:102DF00004DA03F07F03437302F0A8F84B7B1C4C0A
:102E000063F07F0322464B7352F8183FE069934208
:102E100007D1C1E900200160E16111E09842F8D0DA
:102E20001B68002BF5D091F90E5093F90E60B54256
:102E3000F4D0AE42F2DD5868C1E90030016059605B
:102E4000A569A368954200D005B9E5688B4207D013
:102E50005A7BD20604D1DA897F2A01D9AA692AB11C
:102E6000AB4202D0284600F089FA2B46636170BD60
:102E7000D8090020F8B50E4B0C4611460D4A98684B
:102E80001060DDE90667EFF31182202282F31288D9
:102E9000BFF36F8F9D68284602F06AF828463246D5
:102EA0003B46FFF791FF2046BDE8F840FFF706BF1D
:102EB000D8090020FC090020F8B50446EFF311877B
:102EC000202383F31288BFF36F8F437B03F01F022D
:102ED000002A0CBF0126002649B239D103F07F0336
:102EE000437302F033F82C4D437B817363F07F030F
:102EF0002A46437352F8183F934227D1E869C4E940
:102F000000200460EC610FE09842F8D01B68002BB1
:102F1000F5D093F90EC06145F6D08C45F4DD5968C3
:102F2000C4E900310C605C60AC69944200D004B923
:102F3000EC68AB689C4202D0204600F01FFA6C613E
:102F400087F31188BFF36F8F3046F8BDE869DEE77D
:102F50009B071ED5856801F0F9FF81732B689D42A0
:102F600009D16B68C4E900531C606C60E8E76A68CB
:102F70009342F6D01B68002BF3D093F90E209142B8
:102F8000F5D08A42F3DD5A68C4E9003214605C600F
:102F9000D6E78173D4E700BFD809002049B9EFF321
:102FA000058030B9054B5A699B689A4201D0FFF7FA
:102FB00085BE81F31188BFF36F8F7047D809002059
:102FC000034648B9EFF3058232B9064A516992685F
:102FD000914201D0FFF772BE83F31188BFF36F8F68
:102FE000704700BFD8090020EFF31181202383F33D
:102FF0001288BFF36F8F054B9A68D37B013BD37365
:1030000081F31188BFF36F8F704700BFD80900208C
:1030100070B5EFF31186202383F31288BFF36F8F0F
:10302000144DAB68DA7B0132DA732A4652F8184F36
:10303000944200D004B9EC685A7BD20604D1DA89F4
:103040007F2A01D9A2692AB1A34202D0204600F00A
:1030500095F923466B6186F31188BFF36F8FEFF309
:103060001180202383F31288BFF36F8FBDE8704077
:10307000FFF7A6BFD8090020024B03F11802C3E9ED
:1030800006227047D809002070B5EFF3118620237F
:1030900083F31288BFF36F8F1B4CA168E0690B6844
:1030A000814214BF1A46002249680B605960A36828
:1030B000E1692AB9154AC3E900210B60E3610CE01C
:1030C00093F90E0092F90E50A84218D0854216DDF1
:1030D0005168C3E900210B605360A5690B4B9D4209
:1030E00000D005B9E568A3689D4202D0284600F0EB
:1030F00045F965613046BDE87040FFF7DFBD8A42A3
:10310000D8D01268D5E700BFD8090020F009002008
:10311000F8B550EA010306460C4603D1FFF7B4FFA9
:103120000020F8BDEFF31187202383F31288BFF34B
:103130006F8F124D124BA8681860FFF71BFEA8682E
:10314000104923463246183000F0BCF9AA68537B78
:1031500043F00403537304463846FFF7AFFDAB68F2
:10316000D3E90A23B3F1004F08BF002AD8D101F0F8
:10317000BDFF201A20EAE070D3E700BFD809002085
:10318000FC0900201950000038B50446EFF3118502
:10319000202383F31288BFF36F8F437B5B070FD528
:1031A000183001F07BFF637B23F004032046637338
:1031B000FFF79EFD29460548BDE83840FFF7EEBE03
:1031C00085F31188BFF36F8F38BD00BFE40B00207B
:1031D000014B9868704700BFD80900202DE9F843DB
:1031E0000446077BEFF31185202383F31288BFF396
:1031F0006F8F437B190705D585F31188BFF36F8F58
:10320000BDE8F883D90943F0080260D14273A3688E
:1032100013B1204601F0A2FE04F1180001F03EFFB8
:10322000A66D04F15808B04511D04FF0000976B1F1
:10323000304601F093FE06F1180001F02FFFC6F8AA
:10324000AC903046FFF754FDA66DB045EFD1DFF8E6
:10325000C480D8F808309C4241D1EFF30589B9F118
:10326000000918BF4FF00109D8F818602A4A9642A1
:1032700000D00EB9D8F80C60B34202D0304600F04E
:103280007DF82046C8F8146001F04DF8204600F0A3
:10329000CDF8B9F1000F02D02048FFF701FDD8F8B2
:1032A00008309C4231D1EFF3058373BB227BD207F8
:1032B00018D42846FFF702FDFB07A1D5002383F3AE
:1032C0001188BFF36F8F0423184602DF98E703F0DD
:1032D0007F0343F00803437301F038FE97E74FF094
:1032E0000009C1E785F31188BFF36F8F83F311885D
:1032F000BFF36F8F0423184602DFEFF31180202302
:1033000083F31288BFF36F8FD4E785F31188BFF37F
:103310006F8FD1E7D8090020F009002010030020AA
:10332000044BC01A044BC0105843044B01221A54DA
:10333000704700BFC0030020ABAAAAAAE40B00207C
:10334000C3897F2B12D80A4B1B6863B1094B90F9D4
:103350000E201B689A4209DB437BDB0606D1064B35
:10336000C31A18BF012303F0010070470023FAE7D6
:10337000CC000020000A0020B001002070B50E4BE8
:103380000E4C1E7C06EB460304EBC30405462046A8
:1033900001F084FE0A4B002228469A55FFF7D0FF21
:1033A00048B1084B08491A68013A2046D317BDE8CE
:1033B000704000F087B870BDD8090020C00300201D
:1033C000E40B0020CC0000202133000038B5EFF3DF
:1033D0001185202383F31288BFF36F8F104B114A9E
:1033E0009C681068A04206D1FFF7C8FF85F31188DA
:1033F000BFF36F8F38BD00211B7C11600A4AD35C7C
:10340000002BF3D02046FFF79BFF0028EED0637B14
:10341000DB0602D12046FFF7E5FC2046E4E700BFCB
:10342000D8090020FC090020E40B0020EFF31181F3
:10343000202383F31288BFF36F8F0A4A136A8342F3
:1034400007D11B6F136281F31188BFF36F8F704731
:103450001346002BF7D01A6F8242F9D1026F1A6718
:10346000F1E700BFD8090020024B1868984208BF56
:1034700000207047D0000020034B1B680BB9FEF7FB
:1034800015BD0020704700BF040A002030B570B1A0
:103490000B4B5B6898420AD0036843B1D3E904211F
:1034A000D0E90445121941EB0501C3E90421D0E933
:1034B000003213605A600023C0E9003330BD00BF02
:1034C000D0000020B3F1FF3F08BFB2F1FF3F2DE96C
:1034D000F84F0446994615461F467AD08160EFF3AF
:1034E0001188202383F31288BFF36F8FB9F1000F87
:1034F000DFF8E4A020DBFFF7BFFFDAE900270135A2
:1035000049F100092D1849EBE073C4E90453AD18E3
:10351000064643EB07074FF00109FFF7A5FFDFF869
:10352000BCE0DEF804A00346EBB9C4E900EACAF83F
:103530000040CEF8044028E0DAE900126FF0010301
:103540005B1A4FF0FF3161EB02025B1B62EB090279
:10355000012B72F10001BCBF01230022C0E904323B
:103560004FF00009D9E7D3E9041CD4E904208A42CA
:1035700070EB0C0B24DA891A5A686CEB0000C3E973
:103580000410C4E9003214605C60FFF76DFF8442F0
:103590000ED1134B1B685BB9B9F1000F02D1FFF7D5
:1035A0006BFF0646304601F062FD0021FEF750FC3D
:1035B00088F31188BFF36F8F28463946BDE8F88F2E
:1035C000521A60EB0C009A45C4E90420ADD01B6888
:1035D000AAE700252F46EFE7D8030020D0000020FF
:1035E000040A00202DE9F047EFF31185202383F32F
:1035F0001288BFF36F8FDFF8A490DFF8A480C9F8BA
:103600000000FFF731FF00260027D9F80030D8E985
:1036100000ECD91750B1D0E90442A34271EB020A81
:103620001CDAE41A62EB0102C0E9044213EB0E0358
:103630004FF000044CEB01012046C8E90031C9F805
:10364000004001F014FD2146FEF702FC85F31188CD
:10365000BFF36F8FBDE8F047FFF7B8BE14EB0E0263
:103660004CEBE473C0E90467C8E90023FFF70EFFE1
:1036700085F31188BFF36F8F83689847EFF3118547
:10368000202383F31288BFF36F8FD9F800301B1B00
:10369000C9F80030FFF7E8FEB7E700BF040A0020D2
:1036A000D803002010B5EFF31184202383F3128890
:1036B000BFF36F8FFFF7E0FE054A0346D2E9000132
:1036C000181841EBE37184F31188BFF36F8F10BDBD
:1036D000D803002010B50A4C23681BB101232360D6
:1036E000002010BD00F0EAF80028F7D001380628C5
:1036F00003D8044B53F8200010BD034810BD00BF91
:10370000080A002030560000FE8FFFFFBFF34F8FE6
:103710000549064BCA6802F4E0621343CB60BFF36D
:103720004F8F00BFFDE700BF00ED00E00400FA0589
:1037300010B4094B09490A4C4FF0FE32C3F800247B
:103740004968C3F80424C3F80824C3F80C240023F0
:10375000C4F8003510BC084700B00250D800002063
:1037600000A00250D0E90012014BC3E900127047DB
:10377000D800002010B5044650B1636813F0685FAC
:1037800005D0064A934202D000232360626010BD38
:10379000034B04485B689847EFE700BF2C5F5CA9C8
:1037A000D80000204C560000C8B143680D4A93422F
:1037B00013D013F0685F0ED0012350E8002F194694
:1037C00040E8001C9CF0000FF7D1012AF5D0BFF3B0
:1037D0005F8F0020704704487047044870476FF4BB
:1037E000E04070472C5F5CA9E98FFFFFEA8FFFFF85
:1037F00080B14368094A93420AD013F0685F05D04C
:10380000BFF35F8F0023036018467047044870477A
:10381000044870476FF4E040704700BF2C5F5CA91C
:10382000E98FFFFFEA8FFFFF10B5044620B1044B7C
:1038300063600022226010BD0248FFF779FFF6E7BF
:103840003A00003A7456000070B5D0E90023174CD6
:10385000174D6360D0E90230C4E902302260486845
:10386000D1F800C0134BC3E900C0D5F81801D1F856
:1038700008C0C3F808C010F0685FD1F80CC009692F
:10388000C3F80CC0196110D00B49C5F8BC11002356
:10389000C5E9453105F58A70C5F8B8319047236808
:1038A00005F5DC70BDE87040184770BDF4000020DD
:1038B000200A0020E00000202C5F5CA938B500F051
:1038C0002FF820B1032400F063F8204638BD00F043
:1038D00031F898B900F0ACF898B90F4DD5F82839FF
:1038E0001B0EF02B08D1D5F8242A0C4B9A420AD093
:1038F000072400F017F8E6E70624FAE70424204638
:1039000038BD0024F5E7012000F092F804460028B5
:10391000F7D1C5F80C0AD8E700B002500000E0204B
:103920000020704700207047014BC3F8040A70471D
:1039300000B0025010B5114800F048F800B110BDB9
:103940000F4800F043F80028F9D10E4C204600F053
:103950003DF80028F3D10C4B0C481C6000F036F801
:1039600001460028EBD100F02DF8044608B12046AE
:1039700010BD00F03FF82046FAE700BF34010020F8
:10398000300100202C01002024010020280100200B
:1039900008B5084800F024F8074800F021F8074867
:1039A00000F01EF8064800F01BF8BDE8084000F0E3
:1039B0000BB800BF34010020300100202C01002092
:1039C0002801002000207047704700BF08B5034B56
:1039D00002681B6810689847002008BDF4000020AA
:1039E00008B5034B02685B6810689847002008BD63
:1039F000F400002070B5094C094D2069AB68984768
:103A000018B1084B08485B689847084AEB6820697A
:103A100000211160BDE87040184700BFE0000020A1
:103A2000F4000020D8000020985600001C0A002056
:103A3000F8B51A4D1A4E0446B26828699047E8B99D
:103A4000184F3B684CB1A3B1012B19D0013B3B602F
:103A50002869F36898470020F8BD43B9124A01214C
:103A6000C2F800151149D1F81029002AFBD1013301
:103A70003B60F368286998470020F8BD0C48F8BD02
:103A80000A4AD2F81039002BFBD1074A6FF07E406A
:103A9000C2F80035FFF748FF3B68D7E7E000002099
:103AA000F40000201C0A002000A0025000B00250C8
:103AB000E98FFFFF2DE9F04F8DB0436802938378C3
:103AC00015469A07804640F10D8100240E78002E9D
:103AD00000F00A81252E0BD04B1C03930134029B6E
:103AE0004146304698470028C0F2F6800399EDE73A
:103AF0004E788B1C252E0393F0D00027B946BB4689
:103B0000BBF11F0F38D8A6F12003102B0AD8DFE82D
:103B100003F02A0909300909092109090928092D91
:103B200009091F00A6F13003092B33D92A2E37D1FA
:103B30001BF0400F55F8043B40F08280002BA7BFDC
:103B40004BF0200B9946C3F100094BF0280B01E024
:103B50004BF0010B039B13F8016B0393002ECFD1A5
:103B600030E04BF0020B4BF0040BF3E74BF0080B8B
:103B7000F0E74BF0100BEDE7BBF17F0F19D8A6F182
:103B80003003092BD2D81BF0400F03D00A2101FBD0
:103B90000737DFE70A2101FB09394BF0200BD9E792
:103BA0002E2E06D11BF0400F40F09E804BF0400BB4
:103BB000D0E76C2E31D02BD8682E36D06A2E3CD070
:103BC0004C2E3AD0002F46F02003B8BF2BF0400215
:103BD000A3F16501BCBF1FFA82FB0027022901D9AE
:103BE000612B2FD1073525F00705DFF8ACA208358A
:103BF00007271BF0080F66D00AEB070B56465E45F9
:103C000063D1A4EB0A0A06EB0A02A9EB07096FE1EC
:103C1000742E9FD07A2E9DD0D4E71BF0800F18BF52
:103C20004BF4007B4BF0800B94E71BF4807F18BFB4
:103C30004BF4007B4BF4807B8CE74BF4207B89E7D3
:103C40001F4687E7A6F16301122900F2F080DFE842
:103C500011F013004F00EE00EE00EE00EE004F00FA
:103C6000EE00EE00EE00EE00EE00FE00E900EE00D9
:103C7000EE001B00EE00AF0055F8043B8DF8183045
:103C800001270DF1180AB4E755F804AB834BBAF1DC
:103C9000000F08BF9A461BF0400F14BF39464FF083
:103CA000FF31504601F04CFA0746A2E7029B41461D
:103CB0002020984700280FDB013EB742F6D34C4442
:103CC000A41BB14698E74E46F7E716F8010B029B96
:103CD00041469847002892DA98F8023043F00403EE
:103CE00088F802304FF0FF3420460DB0BDE8F08F69
:103CF0001BF0800F34D01BF4007F2CD0073525F04B
:103D00000705AA4669685AF8080B2BF01005002928
:103D1000ADB237DA404261EB410145F480650DF107
:103D2000180B0A235A4601F017FAA0EB0B03019374
:103D30006B0662D5019B25F001019F4289B240F3D9
:103D4000A180002E00F0998015F0100240F09C80B8
:103D5000BB460D4623E0AA465AF8040BC117D4E728
:103D6000AA461BF4807F5AF8041B01D10846F5E7E8
:103D70001BF4007F15BF48B208B241F3C01141F3F4
:103D8000C031C2E750EA0103C9D11BF0400FC6D0D1
:103D9000002FC4D12BF0110295B2BB46019740F21F
:103DA000064115EA01021CBF0BF1010B00222CE0B9
:103DB0002BF010021FFA82FB0A231BF0800C49D063
:103DC0001BF400711DBF073525F00705AA46AA465A
:103DD0001ABF5AF8080B69685AF8040B50EA010533
:103DE00045D12BF016051BF0400FADB242D0002F8D
:103DF00040D12BF0170295B2019715F0100248D070
:103E0000019B002E42D103F1010B29075AD4EB0785
:103E100006D5D9456FDD0199A9EB0B035F18CB4699
:103E20005B4649E04BF0100B10237826C5E7782B52
:103E300004D1C6F1780343F01003BEE7029B41466C
:103E4000252098470028FFF647AF023447E60823AD
:103E50000026B2E7AA461BF480715AF8040BBDD0C5
:103E60001BF400711ABFC0B2614680B2B6E72BF0F6
:103E7000060295B20DF1180B54E725F01105ADB20D
:103E8000BB468CE70D46B8E73B460D4603F1020BF7
:103E9000BBE7DDF804B082E7165C00000F5C0000B1
:103EA000CDE904324146029B202098470028FFF6C6
:103EB00013AF049B059A01339945F1DCA4EB0B0188
:103EC000CC189B460AB3029B4146302098470028F5
:103ED000FFF602AF8EB901342744019B391B99428A
:103EE00024DC1D465DBB019AA9EB0B092244554613
:103EF0001446914435E0019F92E702344146304632
:103F0000029B98470028E7DAE6E640F206410D42B8
:103F1000E2D015F0020F14BF2B20202015F4806F83
:103F200004F10104414618BF2D20E9E7029B4146F8
:103F300030209847002804F10104CEDACCE606AB25
:103F4000013D4146585D029B98470028CADAC3E606
:103F5000029B414620209847002804F10104FFF607
:103F6000BBAEA9EB0403002BF2DCBFE5704783680E
:103F700000EBC101B3F5004F2CBF51F8220031F81E
:103F80001200704700EBC1018068B0F5004F2CBFF4
:103F900041F8223021F81230704708B50122FFF7AE
:103FA000E6FFD04008BD8368B3F5004F00EBC101C8
:103FB00008D34B681AB143F001034B60704723F0FC
:103FC0000103FAE74B881AB143F001034B807047B5
:103FD00023F00103FAE753000122FFF7D3BF836800
:103FE000B3F5004F34BF04230823481C0833A0EB6B
:103FF000D300B0FA80F0C0F11F0070472DE9F04106
:104000000D4686680446FFF7C8FFB6F5004F014627
:1040100001D3012832D02046FFF7E1FF04EB8001F5
:104020000E6996B9E368012282401343E3600222DD
:104030000D612B4629462046FFF7A4FF032229469F
:104040002046BDE8F041FFF79DBF022231462046E1
:10405000FFF78DFF2946034607462046FFF792FFEC
:104060000322334629462046FFF78CFF39462B466C
:104070002046FFF787FF02223146E1E7BDE8F081E5
:10408000B2F5802F2CBF08230423D21A2DE9F0416A
:104090008C18CD1D25F0070524F00704641B0026AD
:1040A000E40805602146AC60EE602846FFF797FF04
:1040B000421D9200013002F107074FEAD707A2F133
:1040C00010023146B8BF324605F1100001F020F869
:1040D0003A4631462846FFF77EFF334632463146A0
:1040E0002846FFF74FFFA4EB070828463146012278
:1040F000FFF759FF42463946FFF76DFF3B46324610
:1041000039462846FFF73EFF21462846FFF763FF62
:104110004346324621462846FFF734FF21462846CB
:104120000122FFF740FF3946BDE8F041FFF766BFC7
:10413000002070470FB407B504A951F8040B019192
:10414000FBF7F8FF03B05DF804EB04B07047038B96
:1041500013F0070305D10368002B0CBF00200320D8
:104160007047022B05D1408BB0FA80F040098000E7
:104170007047012B05D10368002B0CBF00200520E0
:1041800070470020704710B50C4600B111B96FF0B0
:10419000150010BD081D00F093F80028F9D1A368A0
:1041A000032BF6D9F3E72DE9F0410D4607461946F2
:1041B000281D90461E4600F094F8044638B1334658
:1041C000424629463846A446BDE8F0416047BDE86E
:1041D000F08110B4EFF31182202484F31288BFF32E
:1041E0006F8F416110BC0121FBF7D6BF38B50C467B
:1041F000054658B151B10B6843B14B6833B11C222D
:10420000002100F085FF2C61002038BD6FF0150003
:10421000FBE770B505460E46FFF7B5FF041E14DB3D
:10422000EFF31182202383F31288BFF36F8F6B8B20
:104230002C8B4FF6FF718B4204F0070407D182F3F9
:104240001188BFF36F8F6FF00A04204670BD022CF7
:104250000CD101336B8382F31188BFF36F8F00237E
:10426000224631462846FFF79EFFEEE7062C14D87B
:10427000DFE804F004131313041A0400002333606E
:104280006B683BB9C5E90066ACB902212846FBF76B
:1042900083FFDAE71E606E60F6E782F31188BFF3F2
:1042A0006F8F6FF00404D0E782F31188BFF36F8F34
:1042B0006FF08504C9E782F31188BFF36F8FC4E7FD
:1042C000034658B1426802F00302012A03D0032AD0
:1042D00004D1026812B10020986070476FF0150099
:1042E00070474268816002F00302032A4FF0000227
:1042F00003460CBF006810465A6070477047FEE7DF
:1043000000F006BF00F0F6BE01460068FCF77AB97F
:1043100008B5FCF7A7F9BDE80840FCF7C7B90021CC
:104320000120FCF76FB96FF08500704761B662B687
:1043300080F31188BFF36F8F704772B6002383F349
:104340001188BFF36F8FBFF34F8F30BF62B6BFF3DB
:104350006F8F704772B6002383F31188BFF36F8F9E
:10436000BFF34F8F20BF80F31188BFF36F8F62B60A
:104370007047202809D9B0F1004F08D80138B0FAA9
:1043800080F0C0F11F0040007047082070473E20B9
:10439000704708B5FCF794FE002008BD0369C9B258
:1043A0000C2201FB0233186C00F00700704770B557
:1043B000C9B20369EFF31185202484F31288BFF397
:1043C0006F8F0C2606FB0134246C14F0C00408D057
:1043D000A24206D085F31188BFF36F8F4FF0FF30F4
:1043E00070BD06FB013301221A6485F31188BFF307
:1043F0006F8F436803EBC1035B6898470020EFE7CA
:104400008022FFF7D4BFF8B5069F0469C9B2EFF365
:104410001186202585F31288BFF36F8F0C2505FBCD
:104420000144256C05F0070CBCF1010F0CD1276489
:1044300086F31188BFF36F8FC4E90E23436853F8E6
:10444000313098470020F8BD05F0C005AF4286F333
:104450001188BFF36F8F0CBF6FF077004FF0FF3004
:10446000F1E713B580240094FFF7CDFF02B010BD33
:1044700010B40069CBB21C2403FB0400002110BC63
:1044800010471046FEF73CBB00F0E0B9FDF702BF55
:1044900043685B68D3F810350B60002070474368B1
:1044A0005B6802EA010021EA0201C3F80805C3F8CB
:1044B0000C150020704743685B680020C3F808159E
:1044C000704743685B680020C3F80C157047436869
:1044D0005A68D2F8043521EA03000B40C2F80805F7
:1044E000C2F80C350020704710B503695868F8B160
:1044F000884219D19C6808685860A14200D1986030
:10450000002008602AB15A680A609A68596002B9A6
:104510009960002010E0814206D108682060986808
:104520008142EDD19C60EBE7044600680028F2D19F
:10453000002AE8D16FF0150010BDFDF7BFBF30B500
:1045400043681360057A446804EBC504A34202D3B0
:104550006FF0010030BD5C798C4201D00833F0E788
:104560000020F7E743681B68D3F88004C3F8800491
:10457000704742681368D3F8100150B1D269002027
:1045800012780A70C3F81001D3F8102101221A60C2
:1045900070474FF0FF30704702680346D2F8580169
:1045A00040B95B68DB0706D4D2F82001003818BF99
:1045B000012070470120704743681B68D3F804232B
:1045C000D20517D5D3F82021A2B1EFF31182202113
:1045D00081F31288BFF36F8FD3F8201131B100211E
:1045E000C3F82011D3F820110121D96082F311887A
:1045F000BFF36F8FD3F85831704713B501AA044643
:10460000FFF79DFF002805DB019B226819791868D8
:10461000FDF700F902B010BD6FF085007047F8B5E6
:104620000022054601210220FCF740FB0220FCF796
:1046300021FB6C680121E068FFF7DFFF6B681A68F7
:104640002369C2F82435617D237D0B43A17D0B4393
:10465000C2F86C356E68D6E9004313F001033CD014
:104660002F6904F10C0107F1080204F5907000F0C5
:10467000A5F8002830DB387AFDF72EFD0823C4F8B2
:104680000035B369C4F844350023C4F84835012324
:10469000A360D4F85831002BFBD00026C4F8006585
:1046A0006B683146D868FFF7A8FF6D6831462C6803
:1046B000E868FFF7A2FF0823C4F800352A7A52B948
:1046C000EB69C4F834350123C4F83835C4F8102137
:1046D000D4F8102123600020F8BD0822C4F800257A
:1046E000B269C4F84425C4F848350123A360D4F85E
:1046F0002031002BFBD00023C4F82031D4F8203126
:104700000123E3604FF48073C4F80433C1E700F180
:1047100050039B009BB203F1804303F588330022D2
:104720001A601B687047FEF7D5BF08B5FBF756FE49
:10473000FBF72AFFBDE80840FEF7CCBF0346002088
:10474000184700F051BB10B502461168B1B1BFF374
:104750005B8FB1FA81F3C3F11F000123834021EA8B
:10476000030352E8004F8C4204D142E8003CBCF104
:10477000000FF6D1BFF35B8FE7D110BD6FF00B00D8
:10478000FBE710B50368CB40DB0714D401238B4053
:104790000268BFF35B8F43EA020150E8004F944286
:1047A00004D140E8001CBCF1000FF6D1BFF35B8FD1
:1047B000EED1002010BD6FF01500FBE770B50C4680
:1047C0000021054608461646FDF778FC00280ADB5E
:1047D0003378DB0003F1804303F5F8330020C3F89E
:1047E0001055C3F8144570BD10B1012802D07047B0
:1047F000FDF750BDFDF700BD18B1012803D100F051
:104800000AB800F023B8704708B5FDF711FDBDE800
:104810000840FDF77FBDFDF7B5BC38B54FF08044CB
:104820000223C4F808330123E3600023C4F80431F1
:10483000D4F8043142F21075D4F81834DB0304D5EF
:104840000120FFF77EFF013DF6D138BDFFF7E5BF40
:10485000F7B5019001A8DDE9084716461D46FDF7AA
:1048600091FD019BB6F1000C18BF4FF0010C00EB5D
:1048700083000B1E18BF0123002D43EA4C0314BF15
:104880004FF00C0C4FF0000C002C43EA0C0314BF4B
:104890004FF4E06C4FF0000C002F43EA0C03D0F80B
:1048A000002714BF4FF4403C4FF0000C43EA0C03C8
:1048B00022EA030301B109780EB136787600194374
:1048C0000DB12D78AD0031430CB124782402294379
:1048D0000FB13F783F040C433C43C0F8004703B09E
:1048E000F0BD1FB50DF10F03019300238DF80F10DC
:1048F00000931A461946FFF7ABFF05B05DF804FBBD
:1049000010B504460846FDF74DFD04EB4004A08AAF
:10491000C0F3401010BD10B504460846FDF742FD37
:1049200004EB4004A08AC0F3400010BD10B504465B
:104930000846FDF737FD04EB4004A08A400B10BD8C
:1049400070B5044608461646FDF72CFD08300D46A6
:1049500034F81030DA0509D5C3F3432304EBC3025E
:10496000314654F83330526828469847A3682BB133
:10497000E26831462846BDE87040184770BD10B562
:1049800004460846FDF70EFD00B204EB4000838AA2
:10499000DA051DD5C3F3432123F4F853838204F1D0
:1049A000120204F1720032F8023F13F4807F03D048
:1049B000C3F3432399420BD08242F4D104EBC103E9
:1049C00000225A6004F17800BDE81040FFF7D9BE1C
:1049D00010BDF0B5034600F58074002005460127A0
:1049E000844695420AD1D3F87C2132B10022C3F823
:1049F0007C21D3F87C3140F00040F0BD25F04046EA
:104A000007FA06F6314209D0D4F800E0BEF1000FF3
:104A100004D0C4F800C0D4F800E0304301350434B9
:104A2000DFE738B504460D46FFF76AFFB0B1204610
:104A3000FFF771FF90B92046FFF778FF2268012346
:104A40008340C2F80833236800B203EB8003D3F835
:104A5000102522F00302C3F8102538BD2846002196
:104A6000BDE83840FFF73DBF2DE9F043174685B05C
:104A700004460846FDF796FCD7F800800E4605462A
:104A8000B8F1000F1FD02046FFF745FF18B12046B0
:104A9000FFF736FF30BB0023CDE900338DF80E3031
:104AA0008DF80F300DF10F0243460DF10E01304627
:104AB000FFF7CEFE2AB204EB4202938A23F00203F0
:104AC00043F0010393827B68002B34D031462046AB
:104AD00093F80080D3F80490FFF71DFF28B1B9F1D7
:104AE000000F1FD06FF0150028E028B204EB400043
:104AF000838A23F4604323F020038382B9F1000FFB
:104B000010D0B8F1030FEDD87B6821685B6893F88B
:104B100000C001EB8C01B8F1000F12D1C1F8108573
:104B2000C1F810852AB204EB4202938A23F01C03D9
:104B300043EA88039382BB684BBB002005B0BDE805
:104B4000F083D1F8102522F00302C1F81025226865
:104B500002EB8C03D3F8102522F44F3222F440727A
:104B6000C3F810253202D3F8101502F47C5242EA41
:104B700008420A43C3F8102504EB4C03A3F87C60F9
:104B8000838A43EA4C3343F020038382CAE7D3E9A4
:104B9000007831462046FFF7F2FE002FCDD0636843
:104BA0009F4206D004F17800FFF7CDFD002804DA1B
:104BB000C4E7A3689845F5D1002004EBC003C3E91E
:104BC00001782DB204EB4505C0B2AB8A43EA40231D
:104BD00043F48073AB82B0E72DE9F043054685B01E
:104BE000084617461E46FDF7DDFB0C46804637B3E8
:104BF0002846FFF790FE18B92846FFF781FE28BB2C
:104C00000FFA88F905EB4909B9F8143013F01C0FB5
:104C100002D07B78012B19D001238DF80F300023AF
:104C2000CDE900737A1CBB1C0DF10F012046FFF784
:104C30000FFEB9F8143043F00303A9F81430002E26
:104C400041D021462846FFF766FE20B96FF01500D7
:104C500005B0BDE8F08337782B6803EB87030022AB
:104C6000C3F81025C3F810250FFA88F205EB4202AD
:104C70004FEA870C938A23F4604323F02003938246
:104C8000707800B32968B67861440004D1F8103513
:104C900023F4991323F4F853C1F81035230200F4D8
:104CA000403003F47C5303433005D1F8105500F431
:104CB000801003432B43C1F81035938A43EA4733EE
:104CC00043F0200393820020C2E7C0E9031270473B
:104CD00070B504461546FFF713FE48B10846FDF7C8
:104CE00061FB04EB40040020A38A5B0B2B7070BDBA
:104CF0006FF01500FBE738B590F88C4005469CB97D
:104D000060222146143000F003FA2868C0F87C4184
:104D1000D0F87C3140F30730FBF7ACFF012385F876
:104D20008C30AB67204638BD6FF07700FBE790F81A
:104D30008C00003818BF01207047FDF76FBB2DE9CC
:104D4000F34104461746FFF7DBFD0D46266800B326
:104D50002046FFF7E0FD8046D8B92046FFF7E6FD84
:104D600005B2AD0005F5807246F802802168B258A0
:104D70002944D1F8102542F00102C1F810252FB1C5
:104D80002168012202FA00F3C1F8043302B0BDE841
:104D9000F081D6F80433002BA4BF4FF00043C6F8CF
:104DA00004332846FDF7FEFA04EB4004A38AC3F35C
:104DB0008203042B12D0052B12D001A80195FDF718
:104DC000E1FA019BD0F81015D94001F00101023140
:104DD000284602B0BDE8F041FFF783BD0321F7E7A5
:104DE0000221F5E7FFF71DBE08B1FCF7B1B9704726
:104DF00010B5436904463BB90020E268537843F09C
:104E000001035370404210BD98470028F4D0002899
:104E1000B8BF4042E368FF28A8BFFF201870ECE746
:104E200040B1C368587810F001001EBF1878B0FA7E
:104E300080F040097047EFF31183202383F3128839
:104E4000BFF36F8FFEE708B5FFF7F5FF4169826892
:104E500042EA010313F003030FD1C3600369013B6E
:104E600003FB0122002B01DA00207047C1681160AA
:104E70004169C260013B521AF4E76FF015007047B8
:104E800010B5C0E904320023816083610446FFF756
:104E9000DDFF0028A8BFC4E9004410BD2DE9F041A2
:104EA00005460F46EFF31188202383F31288BFF3E2
:104EB0006F8FC668FEB90468A0421CD0DCB1D4E98B
:104EC000003213605A60637BA66023F002036373B1
:104ED000C4E9006604F1180000F0E0F82046C4F8C8
:104EE000AC60276100F06CF8414605F10800BDE8B0
:104EF000F041FEF753B83E60AB69EF60013BAB6138
:104F000088F31188BFF36F8FBDE8F08108B52024C6
:104F1000EFF3118384F31288BFF36F8FFFF70DFA5D
:104F2000F6E790F90E308B4201D0FDF7C5BF0020A7
:104F3000704703460020C3E90200C3E9003370470D
:104F4000EFF30580003818BF01207047D0E9003228
:104F500013605A600023C0E90033704708B5FFF7BB
:104F6000F5FF437B23F0020343730023836008BDF6
:104F700038B504460D46FDF7FDFE637B43F00203A2
:104F80006373E5B1A5602B689D4209D16B68C4E9E4
:104F900000531C606C6012E06A689A42F6D01B688D
:104FA000002BF3D094F90E2093F90E108A42F3D01F
:104FB0009142F1DD5A68C4E9003214605C6038BD8A
:104FC00010B5EFF31184202383F31288BFF36F8FA2
:104FD000FDF78EFE84F31188BFF36F8F10BD10B5FF
:104FE0000146EFF31184202383F31288BFF36F8F00
:104FF000437B13F0280F0AD183680BB1FFF7AEFF94
:105000004B7B23F004034B730846FDF771FE84F3DA
:105010001188BFF36F8F10BD01211838FFF7DFBF74
:1050200038B504460D46FEF773F8B5F1FF3F08BFEB
:10503000B4F1FF3F0246204618D000204FF47A74A6
:1050400047F6FF730146C2FB0431B3F5004F71F11F
:1050500000020BD36FF400429A4243F6FF728A417A
:1050600026BFD80B40EA41406FF0004038BD08B57C
:105070000246FEF7F9F970B1D0E904319B1A61EBF1
:10508000E272B3F1004F72F1000104DA002AACBF02
:105090001846002008BD6FF00040FBE738B5024617
:1050A000EFF31185202383F31288BFF36F8F03681A
:1050B000CBB1FEF7D9F904461046FEF7E7F9002216
:1050C0004FF000438442C0E9042306D1FEF7D4F92F
:1050D000FFF7CDFF0021FCF7BBFE002085F3118810
:1050E000BFF36F8F38BD6FF01500F7E708B5FEF717
:1050F000D9FA08BD0A44914200F1FF3300D170474C
:1051000010B511F8014B03F8014F9142F9D110BDD0
:1051100002440346934200D1704703F8011BF9E7AC
:1051200010B50139044632B111F8013F00F8013BD6
:10513000013A002BF7D10021FFF7EAFF204610BD0E
:1051400010B5024601448A42134603D01C7801324E
:10515000002CF8D1181A10BDF0B5C3F1370704467A
:10516000FFB203F01F031046082BE6B233D0102B1A
:105170003ED06508A40844EA817445EAC1752D193A
:105180004FEA910242EB5102290941EA02716D187E
:1051900042EB1212290A41EA02616D1842EB122217
:1051A000290C41EA02416D1842EB1242AD1842F15E
:1051B0000002EC0844EA4274D10804EB8402A6EB36
:1051C0004205EDB2092D0CD90134A5F10A0541F1D2
:1051D0000001EDB212E0E40844EA417406F007056C
:1051E000C908303554EA010200F8015BBCD1F0BDBA
:1051F000240944EA017406F00F050909092D84BF4A
:10520000ED19EDB2EDE700000148006870470000BD
:04521000FC08002076
:105214000D110000000000007511000000000000E6
:105224000000000074520000F1280000000000009B
:1052340000000000B452000000000000945200007E
:10524400274700000000000000000000D4520000C6
:10525400A114000000000000ED1C0000000000008C
:10526400E9100000000000002B47000000000000CF
:10527400A05B00007C550000985400003801002019
:1052840038090020051200000000000000000000A2
:10529400AF5B00008C550000745400003A010020FC
:1052A4008C090020391600000000000000000000F6
:1052B400BD5B0000A0550000745400003C010020B8
:1052C40098090020391600000000000000000000CA
:1052D400D35B0000B4550000B45400003E0100202C
:1052E400A40900201F460000194600000000000029
:1052F400094800003D470000000000001F43000073
:10530400D4520000B9450000000000001F43000013
:10531400000000001F430000000000001F430000C5
:10532400340000203B450000000000001F43000043
:10533400000000001F430000000000001F430000A5
:10534400000000001F430000000000001F43000095
:10535400000000001F430000000000001F43000085
:10536400000000001F430000000000001F43000075
:10537400000000001F430000000000007D1D00002D
:10538400000000001F430000000000001F43000055
:10539400000000001F430000000000001F43000045
:1053A400000000001F430000000000001F43000035
:1053B400000000001F430000000000001F43000025
:1053C400000000001F430000000000001F43000015
:1053D400000000001F430000000000001F43000005
:1053E400000000001F430000000000001F430000F5
:1053F400000000001F430000000000001F430000E5
:10540400000000001F430000000000001F430000D4
:10541400000000001F430000000000001F430000C4
:10542400000000001F430000000000001F430000B4
:10543400000000001F430000000000001F430000A4
:10544400000000001F430000000000001F43000094
:10545400000000001F430000000000001F43000084
:10546400000000001F430000000000001F43000074
:1054740075160000914400009F440000B7440000EA
:10548400C3440000CF440000F1140000E9440000CC
:045494000000000014
:105498005D120000014400006344000000000000A9
:0C54A8009D430000000000000000000018
:0C54B40073450000D91900006545000098
:1054C000040000000F0000000100000008000000C0
:1054D0002000000060000000700000000D000000CF
:1054E0000C0000000E0000005000000074000000DE
:1054F000A8000000FFFFFFFFFFFFFFFFFFFFFFFF10
:04550000FFFFFFFFAB
:105510000338FDD87047000000000000FF42000083
:105520001C000020140000200C00002000000000DF
:1055300004000020F5040000E90300003D04000021
:105540009D040000000000200000000000000B0689
:105550000200000058550000000000008B5B0000B6
:105560002600020600000020935B000022000B11C1
:10557000C111000091110000000000001113000093
:10558000911200008D44000089440000FFFF0000DC
:105590000003005034000020000000000100000063
:1055A000BCF801FF000000503400002000000000A3
:1055B000000000000020004001000000000000008A
:1055C000D45500000000D60100000000E20B0020CE
:1055D000E10B002000200040E05500000200000028
:1055E0000056000004000000F05500000401000017
:1055F000068000000880000105800002078000038B
:10560000060000000500000208060001070600036E
:1056100008000000030000001452000014520000B3
:105620005C5200006452000074520000745200008A
:10563000FF8FFFFFFF8FFFFFFE8FFFFFFE8FFFFF3C
:10564000FD8FFFFFFC8FFFFFFC8FFFFF6D75746503
:10565000785F667265652063616C6C65642077694C
:105660007468204E554C4C20706172616D65746594
:105670007200000043616E277420696E697469616D
:105680006C697A65206D757465782C20776173205C
:105690004E554C4C0D0A0000436F756C64206E6FC4
:1056A00074206C6F636B20706F7765722073617606
:1056B00065206D757465780048656C6C6F2C205A98
:1056C0006570687972210A002A2A2A20426F6F7455
:1056D000696E67206E524620436F6E6E656374205C
:1056E00053444B2076332E322E302D35646363368F
:1056F00062643339623066202A2A2A0A002A2A2A5A
:10570000205573696E67205A6570687972204F530F
:105710002076342E322E39392D6135376164393196
:105720003363663465202A2A2A0A006D7574657809
:105730005F696E69742063616C6C6564207769745D
:1057400068204E554C4C20706172616D65746572B5
:1057500000436F756C64206E6F7420616C6C6F63B6
:10576000617465206D75746578206265666F726519
:1057700020696E697469616C697A696E670072305C
:105780002F61313A2020307825303878202072314E
:105790002F61323A2020307825303878202072323C
:1057A0002F61333A20203078253038780A00723360
:1057B0002F61343A20203078253038782072313209
:1057C0002F69703A202030782530387820723134B3
:1057D0002F6C723A20203078253038780A002078F3
:1057E0007073723A20203078253038780A0046618C
:1057F000756C74696E6720696E7374727563746911
:105800006F6E206164647265737320287231352F66
:105810007063293A203078253038780A00556E6850
:10582000616E646C6564204952516E3A2025640AA9
:10583000002A2A2A2A2A204D5055204641554C54E8
:10584000202A2A2A2A2A0A002020537461636B69BD
:105850006E67206572726F722028636F6E74657850
:10586000742061726561206D6967687420626520CB
:105870006E6F742076616C6964290A002020556E71
:10588000737461636B696E67206572726F720A0070
:1058900020204461746120416363657373205669FD
:1058A0006F6C6174696F6E0A0020204D4D46415245
:1058B00020416464726573733A20307825780A0059
:1058C0002020496E737472756374696F6E20416332
:1058D000636573732056696F6C6174696F6E0A003B
:1058E0002020466C6F6174696E672D706F696E74ED
:1058F000206C617A792073746174652070726573AD
:105900006572766174696F6E206572726F720A00DB
:105910002A2A2A2A2A205553414745204641554CD8
:1059200054202A2A2A2A2A0A0020204469766973E8
:10593000696F6E206279207A65726F0A00202055A7
:105940006E616C69676E6564206D656D6F7279203C
:105950006163636573730A0020204E6F20636F706C
:10596000726F636573736F7220696E73747275639F
:1059700074696F6E730A002020496C6C6567616CF6
:10598000206C6F6164206F66204558435F52455418
:1059900055524E20696E746F2050430A00202049F2
:1059A0006C6C6567616C20757365206F6620746828
:1059B0006520455053520A002020417474656D7073
:1059C0007420746F206578656375746520756E64E6
:1059D0006566696E656420696E7374727563746957
:1059E0006F6E0A002A2A2A2A2A204255532046414D
:1059F000554C54202A2A2A2A2A0A0020205374614E
:105A0000636B696E67206572726F720A00202050A6
:105A100072656369736520646174612062757320C7
:105A20006572726F720A0020204246415220416422
:105A300064726573733A20307825780A0020204913
:105A40006D7072656369736520646174612062754D
:105A500073206572726F720A002020496E7374722F
:105A6000756374696F6E20627573206572726F72F0
:105A70000A005265736572766564204578636570C7
:105A800074696F6E20280053707572696F7573208A
:105A9000696E7465727275707420284952512000C5
:105AA000535053454C20696E2074687265616420C0
:105AB0006D6F646520646F6573206E6F7420696E0E
:105AC000646963617465205053500A002A2A2A2AA7
:105AD0002A2048415244204641554C54202A2A2A23
